:0400000080313228F1
:100008007E14803120007F08DC000B1F102821009F
:10001800111A2000111A2D280B1F2D282100911EBE
:100028002D282000911E2D2883317B2322000C0EC1
:100038002000DB005B0C0139DB000130DB06DB0E46
:10004800DB0D22000C0820005B06DF395B0622006E
:100058008C0020005C08FF007E10090080313428E5
:100068002030840000308500393084311C248031F0
:10007800A030840000308500103084311C247E10AC
:1000880020008331A32B2000E7006008E200013044
:10009800E235FF3E031D4C286235023E3B3E86009A
:1000A80087010130C03F0030C13F6008E2000130E5
:1000B800E235FF3E031D5C2862353B3E8600870122
:1000C8000030C03FC13F6008E2000130E235FF3E2A
:1000D800031D6A2862353B3E86008701403FE300E6
:1000E800413FE4006408803AE5005F08803A650211
:1000F800031D80285E0863020318080020006008BA
:10010800E2000130E235FF3E031D86286235023EDB
:100118003B3E8600870101085D07E300630886000F
:100128008701010E0F39E4006008E5000130E5356C
:10013800FF3E031D9B2865353B3E86008701013540
:100148006707E600660886008701E40E0108640672
:100158000F39640681006008E2000130E235FF3E95
:10016800031DB2286235023E3B3E86008701010826
:10017800013E5D07E300630886008701010E0F3921
:10018800E4006008E5000130E535FF3E031DC8289E
:1001980065353B3E8600870101356707E60066083E
:1001A8008600870101086406F0396406810060084A
:1001B800E2000130E235FF3E031DDE286235023ED3
:1001C8003B3E8600870101085D07E300630886005F
:1001D8008701010E0F39E4006008E5000130E535BC
:1001E800FF3E031DF3286535023E3B3E860087012E
:1001F8000108013E5D07E6006608860087010108E0
:100208000F3964040F3A031D1C296008E20001300D
:10021800E235FF3E031D0C2962353B3E860087010F
:1002280001356707E300630A8600870181102E29DC
:100238006008E2000130E235FF3E031D1F296235E8
:100248003B3E8600870101356707E300630A8600A5
:10025800870181146008E2000130E235FF3E031D8A
:1002680031296235023E3B3E860087010108013E86
:100278005D07E300630886008701010E0F39E4007B
:100288006008E5000130E535FF3E031D4729653567
:10029800023E3B3E860087010108023E5D07E600FC
:1002A80066088600870101080F3964040F3A031DA8
:1002B80070296008E2000130E235FF3E031D602925
:1002C80062353B3E8600870101356707E300630A14
:1002D80086008701011082296008E2000130E235BA
:1002E800FF3E031D732962353B3E860087010135B9
:1002F8006707E300630A8600870101146008E200CB
:100308000130E235FF3E031D85296235023E3B3E42
:10031800860087010230810741310318810A60088D
:10032800E2000130E235FF3E031D962962353B3E6F
:10033800860087010130810741310318810A672847
:100348002000D90078088A0077080A008131013A2C
:10035800031DD8297508F9000130F935FF3E031D42
:10036800B1297935033E2F3E860087018101750842
:10037800F9000130F935FF3E031DBE2979352F3EBE
:10038800860087010030C03FC13F7508F900013081
:10039800F935FF3E031DCC297935023E2F3E8600F4
:1003A80087018101013008007508F9000130F9352D
:1003B800FF3E031DDB297935023E2F3E860087016B
:1003C8000108031D432A7208F9007508FA00013074
:1003D800FA35FF3E031DEC297A35033E2F3E860091
:1003E8008701010820005907FB007B088600870168
:1003F800790881007508F9000130F935FF3E031DC1
:10040800012A7935033E2F3E860087010103031D2B
:100418002D2A590A8600870101080F39053A031D5C
:10042800232A7508F9000130F935FF3E031D182A03
:100438007935023E2F3E860087018101810A7508C1
:10044800F9000130F935FF3E031D262A7935033EB0
:10045800E62A59088600870153300106031DEA2A57
:100468007508F9000130F935FF3E031D372A793543
:10047800033E2F3E860087018101810AEA2A75081A
:10048800F9000130F935FF3E031D462A79352F3E24
:10049800860087010130810741310318810A7208FB
:1004A800F9007508FA000130FA35FF3E031D582A95
:1004B8007A352F3E86008701010820005907FB0086
:1004C8007B0886008701790881007508F9000130EA
:1004D800F935FF3E031D6C2A79352F3E86008701CA
:1004E80001085907FA007A08860087014330010697
:1004F800031DB12A7508F9000130F935FF3E031DC7
:10050800812A79352F3E860087010108FF3E590769
:10051800FA007A0886008701010E0F39033A031D95
:10052800B12A7508F9000130F935FF3E031D982AF4
:1005380079352F3E860087010130C03F0030C13F2A
:100548007508F9000130F935FF3E031DA72A7935F2
:10055800023E2F3E8600870181017508F9000130AF
:10056800F935FF3E031DB42A79352F3E86008701F1
:10057800403FFA00413FFB007308FF3EFC00FF309C
:10058800743DFD007B087D06031DCC2A7A087C0695
:10059800031DEA2A7508F9000130F935FF3E031DED
:1005A800D12A79352F3E860087010130C03F0030BF
:1005B800C13F7508F9000130F935FF3E031DE02AF7
:1005C8007935023E2F3E8600870181010030080000
:1005D8002000C701C8014808803AE1008030610264
:1005E800031DF82A0330470203181A2B2000470876
:1005F800E1000130E135FF3E031DFE2A6135023E70
:100608003B3E860087010130C03F0030C13F0130CA
:10061800C7070030C83D4808803AE10080306102D1
:10062800031D182B03304702031CFA2A2000C701B8
:10063800C8014808803AE10080306102031D262B7A
:10064800033047020318080020004708E100013082
:10065800E135FF3E031D2C2B61352F3E86008701B7
:100668000130C03F0030C13F0530E1006108DD00C6
:1006780047088331EF238231043E203E86008701FC
:100688008101810A01302000C7070030C83D1D2BB9
:1006980022008C018E01033021008C003A308E003C
:1006A8003D3023008E0037308C0024008C018E01F1
:1006B80025008C018E0100308B1B01302000DD00ED
:1006C8008B1355303C008F00AA308F000F10240880
:1006D800E0391138A40055308F00AA308F000F146C
:1006E80020005D1C792B8B1708008B130800230052
:1006F80019082000DA005A08F2000530F30000302B
:10070800F4000030F500F6000130F7000430F8007E
:1007180052308131A4218331013A031D962B2000E8
:10072800CA019B2B01302000DA005A08CA0705309D
:100738004A06031D0800CB01CB0ACA010800843110
:10074800102483318231EC22833121000C150E14E0
:100758008B170B178331DA2383312000570C2200C3
:10076800031C0E1103180E152000570C2200031C41
:100778000C1203180C16AE2B21009112111208301E
:1007880023009F0090309D0004309E008A309B001B
:100798009C012000D101D0010830DD005D08E9008E
:1007A800CF01CE01CD0121009116080020004B0396
:1007B800031D08005230E8006808DD000130DE0043
:1007C8000030DF000030E000E10057308031472082
:1007D8002000CB0108002000E000DF01601CF82B9E
:1007E8005D08DE005E08DF070310DD0D0310E00C76
:1007F8006008031DF22B5F08080023001D19062C52
:100808009D1C0E2C1908F0007008F1001D121D1611
:10081800013008000030080083314C2384318431D2
:10082800222484318431282484318331C023080070
:10083800640080010131890B1D2C003432009901BC
:100848009B019D019E0108001630210097000800B9
:020000040001F9
:08000E008CD732EDFFFFFFFF6C
:00000001FF
