:0400000080313328F0
:100008007E14803120007F08FA000B1F272821006A
:10001800111E27282000111E27286E30F1000230FB
:10002800F2005630F3000230F4000130F5000030E1
:10003800F6000030F700F8005A308031482080314F
:10004800200011122E280B1F2E282100911E2E2869
:10005800200011087A082000FF007E100900803176
:10006800352820308400003085003B3082317E22E4
:100078008031A0308400003085001F3082317E221C
:100088007E1020008131A929F90005302000DB000D
:100098005B082100C3007708823144228031203E6A
:1000A80086008701403F2000DC00413FDD007608E4
:1000B8005D06031D612875085C0603191E290530B5
:1000C800DB005B082100C3007708823144228031BD
:1000D800203E8600870116000104031D782805309C
:1000E8002000DB005B08D40005302000DB005B0843
:1000F8002100C3007708823144228031043E203E2B
:10010800860087010103031DBA280F30200054051B
:10011800DB000530DC005C082100C3007708823171
:1001280044228031203E860087010108790720009B
:10013800DD005D08860087010108F0395B04DE00F8
:100148005E08F00072088A0071080A0080310530E4
:100158002000DB005B082100C300770882314422BD
:10016800043E203E860087018101080005302000FA
:10017800DB005B082100C30077088231442280310C
:10018800203E86008701010879072000DC005C0812
:10019800860087010109DD005D08D4005408DB00F2
:1001A8000430DB36890BD5280530DC005C082100DB
:1001B800C3007708823144228031203E86008701BF
:1001C800010879072000DD005D0886008701010825
:1001D800DE000330DE35FF3E031DEE285E355B048E
:1001E800DF005F08F00072088A0071080A00803199
:1001F80005302000DB005B082100C300770882314E
:1002080044228031043E203E860087018101810A14
:1002180005302000DB005B082100C300770882312D
:100228004422203E860087010130810741310318AE
:10023800810A080005302000DB005B082100C300AC
:100248007708823144228031023E203E86008701B1
:1002580016000104031D4F29200054080F393038B7
:10026800DB005B08F00072088A0071080A0081311F
:1002780005302000DB005B082100C30077088231CD
:100288004422023E203E8600870101308107413129
:100298000318810A080005302000DB005B082100F4
:1002A800C3007708823144228031023E203E860016
:1002B80087011600013A2000DC001600DC04031D4B
:1002C80081294330DB005B08F00072088A0071085E
:1002D8000A00813105302000DB005B082100C300E3
:1002E800770882314422023E203E86008701013091
:1002F800810741310318810A080005302000DB001E
:100308005B082100C3007708823144228031023E15
:10031800203E860087010030C03FC13F05302000E5
:10032800DB005B082100C30077088231442280315A
:10033800203E860087010030C03FC13FF0017408AD
:100348008A0073080A0081310800823162228131F3
:10035800210011168E14D2018B170B1703302100C0
:10036800D1000830D0007730890BB829D00BB829D4
:10037800D10BB82920000E1DC42922008E16C629CB
:1003880022008E12003020000E190130DA006E3083
:100398002100CA000230CB005630CC000230CD001C
:1003A8000030111A0130CE0082310D228131BE2970
:1003B80022008C018E01373021008C001C308E0009
:1003C8003B3023008E0037308C0024008C018E01D6
:1003D80025008C018E0100308B1B01302000E000CD
:1003E8008B1355303C008F00AA308F000F103D0052
:1003F8002008E0391438A00055303C008F00AA309E
:100408008F000F142000601C0B2A8B1708008B1319
:10041800080021004E08031D08005330CF004F0884
:10042800C9004B088A004A080A0082312000E0010E
:10043800E00A21004D088A004C080A008231053084
:100448002100CF004F082000D4000800210091129D
:100458001112083023009F0080309D0024309E0038
:100468008A309B009C012000D901D8010830E000A7
:100478006008E100D701D601D501210091160800D6
:100488002100C800C701481C4D2A4308C40044087D
:10049800C7070310C30D0310C80C4808031D472ADB
:1004A800470808007E1C5A2A8231772A2000600CEF
:1004B8002100031C11120318111608008131DC21D8
:1004C800823182318422823182318A2282318231A0
:1004D8002A2208007E1C722A82318E2A21004908AD
:1004E80023009A000800700C2100031C1112031845
:1004F80011160800640080010131890B7F2A00343D
:10050800320099019B019D019E01080016302100CF
:0C05180097000800700823009A000800FB
:020000040001F9
:08000E008CD732EDFFFFFFFF6C
:00000001FF
